:10085C00E4FDFCC3ED9FEC9E5015E4FBFA0BBB00D2
:0F086C00010AEB647B4A70F50DBD00010C80E4BE
:01087B00225A
:07088800D288D2A8D2AF22F2
:10080000C2907F647E0012085CD29012088875E165
:1008100033750810E4F9E508F4F5A07FF47E0112C1
:10082000085CE50825E0F50843E11009B904E78014
:01083000E0E7
:03000300020831BF
:10083100C0E0C0D075D000C002C003C004C005C074
:1008410006C0077FD07E0712085CD007D006D0050E
:0B085100D004D003D002D0D0D0E032A1
:0300000002087C77
:0C087C00787FE4F6D8FD758108020800C2
:00000001FF
