:0F09100002080000020A0000020C0064010E0041
:05093400D2A9D2AF22A0
:0C092000758902758C9C758A9CD28C2213
:08092C0012093412092080FEBB
:03000B0002088C5C
:04088C00C0E0C0D038
:100890000509E50970020508C39464E50894004061
:1008A00006750800750900050BE50B7002050AC303
:1008B00094C8E50A94004042750A00750B00E50DE6
:1008C0009464E50C9400400AE50EB40105750E0031
:1008D000800DE50D450C7007E50E7003750E01E502
:1008E0000E700AE50D150D7011150C800DE50EB496
:1008F0000108050DE50D7002050CD3E509950DE520
:0B09000008950C5004D2A48002C2A491
:05090B00D0D0D0E03265
:03000000020800F3
:0C080000787FE4F6D8FD75810E020847F1
:10080C0002092CE493A3F8E493A34003F68001F2CD
:10081C0008DFF48029E493A3F85407240CC8C333ED
:10082C00C4540F4420C8834004F456800146F6DFBC
:10083C00E4800B0102040810204080900910E47E33
:10084C00019360BCA3FF543F30E509541FFEE493B1
:10085C00A360010ECF54C025E060A840B8E493A378
:10086C00FAE493A3F8E493A3C8C582C8CAC583CAA3
:10087C00F0A3C8C582C8CAC583CADFE9DEE780BE5B
:01091F0000D7
:00000001FF
