:0C08DA000A08039F250D9949411F0109E0
:1008BA00E4FDFCC3ED9FEC9E5015E4FBFA0BBB0074
:0F08CA00010AEB647B4A70F50DBD00010C80E460
:0108D90022FC
:10088C00850980C2A37F017E001208BAD2A3850A13
:10089C0080C2A21208BAD2A2850B80C2A11208BAD9
:0E08AC00D2A1850C80C2A01208BAD2A080D2C0
:03000000020800F3
:0C080000787FE4F6D8FD758111020847EE
:10080C0002088CE493A3F8E493A34003F68001F26E
:10081C0008DFF48029E493A3F85407240CC8C333ED
:10082C00C4540F4420C8834004F456800146F6DFBC
:10083C00E4800B01020408102040809008DAE47E6A
:10084C00019360BCA3FF543F30E509541FFEE493B1
:10085C00A360010ECF54C025E060A840B8E493A378
:10086C00FAE493A3F8E493A3C8C582C8CAC583CAA3
:10087C00F0A3C8C582C8CAC583CADFE9DEE780BE5B
:0108E6000011
:00000001FF
