:040865007F327E0060
:10086900E4FDFCC3ED9FEC9E5015E4FBFA0BBB00C5
:0F087900010AEB647B4A70F50DBD00010C80E4B1
:01088800224D
:100800007F007E201208898FA020B21B120865206D
:10081000B215B2A430B2FD7F007E201208AEADA0AA
:100820007F007E2012089C20B31B12086520B315A0
:10083000B2A530B3FD7F007E201208AEADA07F00D0
:100840007E2012089C20B4C112086520B4BBB2A659
:1008500030B4FD7F007E201208AEADA07F007E2068
:0508600012089C80A4B9
:0708D20075E64675E6B92248
:0808CA00E4F5E7F5E5F5E6228F
:1008890075E78175E5018FE48EE31208D2AFE212B4
:0208990008CA8B
:01089B00223A
:1008AE0075E78175E5038FE48EE31208D20208CA5C
:10089C0075E78175E5028FE48EE38DE21208D202D2
:0208AC0008CA78
:030000000208BE35
:0C08BE00787FE4F6D8FD75810702080081
:00000001FF
